{"contracts/timedVoting.sol":{"timedVoting":{"abi":[{"inputs":[],"stateMutability":"nonpayable","type":"constructor"},{"anonymous":false,"inputs":[],"name":"CloseWebView","type":"event"},{"anonymous":false,"inputs":[],"name":"DisplayWebView","type":"event"},{"inputs":[],"name":"checkAndUpdateExecution","outputs":[],"stateMutability":"nonpayable","type":"function"},{"inputs":[],"name":"cycleCounter","outputs":[{"internalType":"uint256","name":"","type":"uint256"}],"stateMutability":"view","type":"function"},{"inputs":[],"name":"initializeGroup","outputs":[],"stateMutability":"nonpayable","type":"function"},{"inputs":[],"name":"nextExecutionTime","outputs":[{"internalType":"uint256","name":"","type":"uint256"}],"stateMutability":"view","type":"function"},{"inputs":[],"name":"owner","outputs":[{"internalType":"address","name":"","type":"address"}],"stateMutability":"view","type":"function"},{"inputs":[],"name":"resetCycle","outputs":[],"stateMutability":"nonpayable","type":"function"},{"inputs":[],"name":"webViewDisplayed","outputs":[{"internalType":"bool","name":"","type":"bool"}],"stateMutability":"view","type":"function"}],"evm":{"bytecode":{"linkReferences":{},"object":"608060405260006001556000600260006101000a81548160ff02191690831515021790555034801561003057600080fd5b5033600260016101000a81548173ffffffffffffffffffffffffffffffffffffffff021916908373ffffffffffffffffffffffffffffffffffffffff1602179055506107d0806100816000396000f3fe608060405234801561001057600080fd5b506004361061007d5760003560e01c80639271c2031161005b5780639271c203146100dc578063b7aa1797146100e6578063eb445885146100f0578063f33fbaf3146100fa5761007d565b80630e8b50de146100825780635acb23f5146100a05780638da5cb5b146100be575b600080fd5b61008a610118565b60405161009791906104a5565b60405180910390f35b6100a861012b565b6040516100b591906104d9565b60405180910390f35b6100c6610131565b6040516100d39190610535565b60405180910390f35b6100e4610157565b005b6100ee610212565b005b6100f8610302565b005b610102610484565b60405161010f91906104d9565b60405180910390f35b600260009054906101000a900460ff1681565b60005481565b600260019054906101000a900473ffffffffffffffffffffffffffffffffffffffff1681565b600260019054906101000a900473ffffffffffffffffffffffffffffffffffffffff1673ffffffffffffffffffffffffffffffffffffffff163373ffffffffffffffffffffffffffffffffffffffff16146101e7576040517f08c379a00000000000000000000000000000000000000000000000000000000081526004016101de906105ad565b60405180910390fd5b600180819055506000600260006101000a81548160ff02191690831515021790555060008081905550565b600260019054906101000a900473ffffffffffffffffffffffffffffffffffffffff1673ffffffffffffffffffffffffffffffffffffffff163373ffffffffffffffffffffffffffffffffffffffff16146102a2576040517f08c379a0000000000000000000000000000000000000000000000000000000008152600401610299906105ad565b60405180910390fd5b60018054146102e6576040517f08c379a00000000000000000000000000000000000000000000000000000000081526004016102dd90610619565b60405180910390fd5b6078426102f39190610668565b60008190555060018081905550565b600054421015610347576040517f08c379a000000000000000000000000000000000000000000000000000000000815260040161033e906106e8565b60405180910390fd5b600180541015801561035c5750600460015411155b61039b576040517f08c379a00000000000000000000000000000000000000000000000000000000081526004016103929061077a565b60405180910390fd5b600260009054906101000a900460ff1661040e577f221638c68c73d392697a4de5e58580ef563d25992f83fc6ca56947d52290a98160405160405180910390a16001600260006101000a81548160ff021916908315150217905550601e426104039190610668565b600081905550610482565b7f556c97f677828ff2c89363a6a66142f0c9d4705b2a3bc85d2170562f37e7819960405160405180910390a16000600260006101000a81548160ff0219169083151502179055506078426104629190610668565b600081905550600180600082825461047a9190610668565b925050819055505b565b60015481565b60008115159050919050565b61049f8161048a565b82525050565b60006020820190506104ba6000830184610496565b92915050565b6000819050919050565b6104d3816104c0565b82525050565b60006020820190506104ee60008301846104ca565b92915050565b600073ffffffffffffffffffffffffffffffffffffffff82169050919050565b600061051f826104f4565b9050919050565b61052f81610514565b82525050565b600060208201905061054a6000830184610526565b92915050565b600082825260208201905092915050565b7f43616c6c6572206973206e6f7420746865206f776e6572000000000000000000600082015250565b6000610597601783610550565b91506105a282610561565b602082019050919050565b600060208201905081810360008301526105c68161058a565b9050919050565b7f4379636c6520616c726561647920696e697469616c697a656400000000000000600082015250565b6000610603601983610550565b915061060e826105cd565b602082019050919050565b60006020820190508181036000830152610632816105f6565b9050919050565b7f4e487b7100000000000000000000000000000000000000000000000000000000600052601160045260246000fd5b6000610673826104c0565b915061067e836104c0565b925082820190508082111561069657610695610639565b5b92915050565b7f4974206973206e6f742074696d65207965740000000000000000000000000000600082015250565b60006106d2601283610550565b91506106dd8261069c565b602082019050919050565b60006020820190508181036000830152610701816106c5565b9050919050565b7f4379636c65206c696d69742072656163686564206f72206e6f7420737461727460008201527f6564000000000000000000000000000000000000000000000000000000000000602082015250565b6000610764602283610550565b915061076f82610708565b604082019050919050565b6000602082019050818103600083015261079381610757565b905091905056fea26469706673582212206313037e522af160fc651a9817974a64390d9c3685bc7f79901078157d84761564736f6c63430008180033","opcodes":"PUSH1 0x80 PUSH1 0x40 MSTORE PUSH1 0x0 PUSH1 0x1 SSTORE PUSH1 0x0 PUSH1 0x2 PUSH1 0x0 PUSH2 0x100 EXP DUP2 SLOAD DUP2 PUSH1 0xFF MUL NOT AND SWAP1 DUP4 ISZERO ISZERO MUL OR SWAP1 SSTORE POP CALLVALUE DUP1 ISZERO PUSH2 0x30 JUMPI PUSH1 0x0 DUP1 REVERT JUMPDEST POP CALLER PUSH1 0x2 PUSH1 0x1 PUSH2 0x100 EXP DUP2 SLOAD DUP2 PUSH20 0xFFFFFFFFFFFFFFFFFFFFFFFFFFFFFFFFFFFFFFFF MUL NOT AND SWAP1 DUP4 PUSH20 0xFFFFFFFFFFFFFFFFFFFFFFFFFFFFFFFFFFFFFFFF AND MUL OR SWAP1 SSTORE POP PUSH2 0x7D0 DUP1 PUSH2 0x81 PUSH1 0x0 CODECOPY PUSH1 0x0 RETURN INVALID PUSH1 0x80 PUSH1 0x40 MSTORE CALLVALUE DUP1 ISZERO PUSH2 0x10 JUMPI PUSH1 0x0 DUP1 REVERT JUMPDEST POP PUSH1 0x4 CALLDATASIZE LT PUSH2 0x7D JUMPI PUSH1 0x0 CALLDATALOAD PUSH1 0xE0 SHR DUP1 PUSH4 0x9271C203 GT PUSH2 0x5B JUMPI DUP1 PUSH4 0x9271C203 EQ PUSH2 0xDC JUMPI DUP1 PUSH4 0xB7AA1797 EQ PUSH2 0xE6 JUMPI DUP1 PUSH4 0xEB445885 EQ PUSH2 0xF0 JUMPI DUP1 PUSH4 0xF33FBAF3 EQ PUSH2 0xFA JUMPI PUSH2 0x7D JUMP JUMPDEST DUP1 PUSH4 0xE8B50DE EQ PUSH2 0x82 JUMPI DUP1 PUSH4 0x5ACB23F5 EQ PUSH2 0xA0 JUMPI DUP1 PUSH4 0x8DA5CB5B EQ PUSH2 0xBE JUMPI JUMPDEST PUSH1 0x0 DUP1 REVERT JUMPDEST PUSH2 0x8A PUSH2 0x118 JUMP JUMPDEST PUSH1 0x40 MLOAD PUSH2 0x97 SWAP2 SWAP1 PUSH2 0x4A5 JUMP JUMPDEST PUSH1 0x40 MLOAD DUP1 SWAP2 SUB SWAP1 RETURN JUMPDEST PUSH2 0xA8 PUSH2 0x12B JUMP JUMPDEST PUSH1 0x40 MLOAD PUSH2 0xB5 SWAP2 SWAP1 PUSH2 0x4D9 JUMP JUMPDEST PUSH1 0x40 MLOAD DUP1 SWAP2 SUB SWAP1 RETURN JUMPDEST PUSH2 0xC6 PUSH2 0x131 JUMP JUMPDEST PUSH1 0x40 MLOAD PUSH2 0xD3 SWAP2 SWAP1 PUSH2 0x535 JUMP JUMPDEST PUSH1 0x40 MLOAD DUP1 SWAP2 SUB SWAP1 RETURN JUMPDEST PUSH2 0xE4 PUSH2 0x157 JUMP JUMPDEST STOP JUMPDEST PUSH2 0xEE PUSH2 0x212 JUMP JUMPDEST STOP JUMPDEST PUSH2 0xF8 PUSH2 0x302 JUMP JUMPDEST STOP JUMPDEST PUSH2 0x102 PUSH2 0x484 JUMP JUMPDEST PUSH1 0x40 MLOAD PUSH2 0x10F SWAP2 SWAP1 PUSH2 0x4D9 JUMP JUMPDEST PUSH1 0x40 MLOAD DUP1 SWAP2 SUB SWAP1 RETURN JUMPDEST PUSH1 0x2 PUSH1 0x0 SWAP1 SLOAD SWAP1 PUSH2 0x100 EXP SWAP1 DIV PUSH1 0xFF AND DUP2 JUMP JUMPDEST PUSH1 0x0 SLOAD DUP2 JUMP JUMPDEST PUSH1 0x2 PUSH1 0x1 SWAP1 SLOAD SWAP1 PUSH2 0x100 EXP SWAP1 DIV PUSH20 0xFFFFFFFFFFFFFFFFFFFFFFFFFFFFFFFFFFFFFFFF AND DUP2 JUMP JUMPDEST PUSH1 0x2 PUSH1 0x1 SWAP1 SLOAD SWAP1 PUSH2 0x100 EXP SWAP1 DIV PUSH20 0xFFFFFFFFFFFFFFFFFFFFFFFFFFFFFFFFFFFFFFFF AND PUSH20 0xFFFFFFFFFFFFFFFFFFFFFFFFFFFFFFFFFFFFFFFF AND CALLER PUSH20 0xFFFFFFFFFFFFFFFFFFFFFFFFFFFFFFFFFFFFFFFF AND EQ PUSH2 0x1E7 JUMPI PUSH1 0x40 MLOAD PUSH32 0x8C379A000000000000000000000000000000000000000000000000000000000 DUP2 MSTORE PUSH1 0x4 ADD PUSH2 0x1DE SWAP1 PUSH2 0x5AD JUMP JUMPDEST PUSH1 0x40 MLOAD DUP1 SWAP2 SUB SWAP1 REVERT JUMPDEST PUSH1 0x1 DUP1 DUP2 SWAP1 SSTORE POP PUSH1 0x0 PUSH1 0x2 PUSH1 0x0 PUSH2 0x100 EXP DUP2 SLOAD DUP2 PUSH1 0xFF MUL NOT AND SWAP1 DUP4 ISZERO ISZERO MUL OR SWAP1 SSTORE POP PUSH1 0x0 DUP1 DUP2 SWAP1 SSTORE POP JUMP JUMPDEST PUSH1 0x2 PUSH1 0x1 SWAP1 SLOAD SWAP1 PUSH2 0x100 EXP SWAP1 DIV PUSH20 0xFFFFFFFFFFFFFFFFFFFFFFFFFFFFFFFFFFFFFFFF AND PUSH20 0xFFFFFFFFFFFFFFFFFFFFFFFFFFFFFFFFFFFFFFFF AND CALLER PUSH20 0xFFFFFFFFFFFFFFFFFFFFFFFFFFFFFFFFFFFFFFFF AND EQ PUSH2 0x2A2 JUMPI PUSH1 0x40 MLOAD PUSH32 0x8C379A000000000000000000000000000000000000000000000000000000000 DUP2 MSTORE PUSH1 0x4 ADD PUSH2 0x299 SWAP1 PUSH2 0x5AD JUMP JUMPDEST PUSH1 0x40 MLOAD DUP1 SWAP2 SUB SWAP1 REVERT JUMPDEST PUSH1 0x1 DUP1 SLOAD EQ PUSH2 0x2E6 JUMPI PUSH1 0x40 MLOAD PUSH32 0x8C379A000000000000000000000000000000000000000000000000000000000 DUP2 MSTORE PUSH1 0x4 ADD PUSH2 0x2DD SWAP1 PUSH2 0x619 JUMP JUMPDEST PUSH1 0x40 MLOAD DUP1 SWAP2 SUB SWAP1 REVERT JUMPDEST PUSH1 0x78 TIMESTAMP PUSH2 0x2F3 SWAP2 SWAP1 PUSH2 0x668 JUMP JUMPDEST PUSH1 0x0 DUP2 SWAP1 SSTORE POP PUSH1 0x1 DUP1 DUP2 SWAP1 SSTORE POP JUMP JUMPDEST PUSH1 0x0 SLOAD TIMESTAMP LT ISZERO PUSH2 0x347 JUMPI PUSH1 0x40 MLOAD PUSH32 0x8C379A000000000000000000000000000000000000000000000000000000000 DUP2 MSTORE PUSH1 0x4 ADD PUSH2 0x33E SWAP1 PUSH2 0x6E8 JUMP JUMPDEST PUSH1 0x40 MLOAD DUP1 SWAP2 SUB SWAP1 REVERT JUMPDEST PUSH1 0x1 DUP1 SLOAD LT ISZERO DUP1 ISZERO PUSH2 0x35C JUMPI POP PUSH1 0x4 PUSH1 0x1 SLOAD GT ISZERO JUMPDEST PUSH2 0x39B JUMPI PUSH1 0x40 MLOAD PUSH32 0x8C379A000000000000000000000000000000000000000000000000000000000 DUP2 MSTORE PUSH1 0x4 ADD PUSH2 0x392 SWAP1 PUSH2 0x77A JUMP JUMPDEST PUSH1 0x40 MLOAD DUP1 SWAP2 SUB SWAP1 REVERT JUMPDEST PUSH1 0x2 PUSH1 0x0 SWAP1 SLOAD SWAP1 PUSH2 0x100 EXP SWAP1 DIV PUSH1 0xFF AND PUSH2 0x40E JUMPI PUSH32 0x221638C68C73D392697A4DE5E58580EF563D25992F83FC6CA56947D52290A981 PUSH1 0x40 MLOAD PUSH1 0x40 MLOAD DUP1 SWAP2 SUB SWAP1 LOG1 PUSH1 0x1 PUSH1 0x2 PUSH1 0x0 PUSH2 0x100 EXP DUP2 SLOAD DUP2 PUSH1 0xFF MUL NOT AND SWAP1 DUP4 ISZERO ISZERO MUL OR SWAP1 SSTORE POP PUSH1 0x1E TIMESTAMP PUSH2 0x403 SWAP2 SWAP1 PUSH2 0x668 JUMP JUMPDEST PUSH1 0x0 DUP2 SWAP1 SSTORE POP PUSH2 0x482 JUMP JUMPDEST PUSH32 0x556C97F677828FF2C89363A6A66142F0C9D4705B2A3BC85D2170562F37E78199 PUSH1 0x40 MLOAD PUSH1 0x40 MLOAD DUP1 SWAP2 SUB SWAP1 LOG1 PUSH1 0x0 PUSH1 0x2 PUSH1 0x0 PUSH2 0x100 EXP DUP2 SLOAD DUP2 PUSH1 0xFF MUL NOT AND SWAP1 DUP4 ISZERO ISZERO MUL OR SWAP1 SSTORE POP PUSH1 0x78 TIMESTAMP PUSH2 0x462 SWAP2 SWAP1 PUSH2 0x668 JUMP JUMPDEST PUSH1 0x0 DUP2 SWAP1 SSTORE POP PUSH1 0x1 DUP1 PUSH1 0x0 DUP3 DUP3 SLOAD PUSH2 0x47A SWAP2 SWAP1 PUSH2 0x668 JUMP JUMPDEST SWAP3 POP POP DUP2 SWAP1 SSTORE POP JUMPDEST JUMP JUMPDEST PUSH1 0x1 SLOAD DUP2 JUMP JUMPDEST PUSH1 0x0 DUP2 ISZERO ISZERO SWAP1 POP SWAP2 SWAP1 POP JUMP JUMPDEST PUSH2 0x49F DUP2 PUSH2 0x48A JUMP JUMPDEST DUP3 MSTORE POP POP JUMP JUMPDEST PUSH1 0x0 PUSH1 0x20 DUP3 ADD SWAP1 POP PUSH2 0x4BA PUSH1 0x0 DUP4 ADD DUP5 PUSH2 0x496 JUMP JUMPDEST SWAP3 SWAP2 POP POP JUMP JUMPDEST PUSH1 0x0 DUP2 SWAP1 POP SWAP2 SWAP1 POP JUMP JUMPDEST PUSH2 0x4D3 DUP2 PUSH2 0x4C0 JUMP JUMPDEST DUP3 MSTORE POP POP JUMP JUMPDEST PUSH1 0x0 PUSH1 0x20 DUP3 ADD SWAP1 POP PUSH2 0x4EE PUSH1 0x0 DUP4 ADD DUP5 PUSH2 0x4CA JUMP JUMPDEST SWAP3 SWAP2 POP POP JUMP JUMPDEST PUSH1 0x0 PUSH20 0xFFFFFFFFFFFFFFFFFFFFFFFFFFFFFFFFFFFFFFFF DUP3 AND SWAP1 POP SWAP2 SWAP1 POP JUMP JUMPDEST PUSH1 0x0 PUSH2 0x51F DUP3 PUSH2 0x4F4 JUMP JUMPDEST SWAP1 POP SWAP2 SWAP1 POP JUMP JUMPDEST PUSH2 0x52F DUP2 PUSH2 0x514 JUMP JUMPDEST DUP3 MSTORE POP POP JUMP JUMPDEST PUSH1 0x0 PUSH1 0x20 DUP3 ADD SWAP1 POP PUSH2 0x54A PUSH1 0x0 DUP4 ADD DUP5 PUSH2 0x526 JUMP JUMPDEST SWAP3 SWAP2 POP POP JUMP JUMPDEST PUSH1 0x0 DUP3 DUP3 MSTORE PUSH1 0x20 DUP3 ADD SWAP1 POP SWAP3 SWAP2 POP POP JUMP JUMPDEST PUSH32 0x43616C6C6572206973206E6F7420746865206F776E6572000000000000000000 PUSH1 0x0 DUP3 ADD MSTORE POP JUMP JUMPDEST PUSH1 0x0 PUSH2 0x597 PUSH1 0x17 DUP4 PUSH2 0x550 JUMP JUMPDEST SWAP2 POP PUSH2 0x5A2 DUP3 PUSH2 0x561 JUMP JUMPDEST PUSH1 0x20 DUP3 ADD SWAP1 POP SWAP2 SWAP1 POP JUMP JUMPDEST PUSH1 0x0 PUSH1 0x20 DUP3 ADD SWAP1 POP DUP2 DUP2 SUB PUSH1 0x0 DUP4 ADD MSTORE PUSH2 0x5C6 DUP2 PUSH2 0x58A JUMP JUMPDEST SWAP1 POP SWAP2 SWAP1 POP JUMP JUMPDEST PUSH32 0x4379636C6520616C726561647920696E697469616C697A656400000000000000 PUSH1 0x0 DUP3 ADD MSTORE POP JUMP JUMPDEST PUSH1 0x0 PUSH2 0x603 PUSH1 0x19 DUP4 PUSH2 0x550 JUMP JUMPDEST SWAP2 POP PUSH2 0x60E DUP3 PUSH2 0x5CD JUMP JUMPDEST PUSH1 0x20 DUP3 ADD SWAP1 POP SWAP2 SWAP1 POP JUMP JUMPDEST PUSH1 0x0 PUSH1 0x20 DUP3 ADD SWAP1 POP DUP2 DUP2 SUB PUSH1 0x0 DUP4 ADD MSTORE PUSH2 0x632 DUP2 PUSH2 0x5F6 JUMP JUMPDEST SWAP1 POP SWAP2 SWAP1 POP JUMP JUMPDEST PUSH32 0x4E487B7100000000000000000000000000000000000000000000000000000000 PUSH1 0x0 MSTORE PUSH1 0x11 PUSH1 0x4 MSTORE PUSH1 0x24 PUSH1 0x0 REVERT JUMPDEST PUSH1 0x0 PUSH2 0x673 DUP3 PUSH2 0x4C0 JUMP JUMPDEST SWAP2 POP PUSH2 0x67E DUP4 PUSH2 0x4C0 JUMP JUMPDEST SWAP3 POP DUP3 DUP3 ADD SWAP1 POP DUP1 DUP3 GT ISZERO PUSH2 0x696 JUMPI PUSH2 0x695 PUSH2 0x639 JUMP JUMPDEST JUMPDEST SWAP3 SWAP2 POP POP JUMP JUMPDEST PUSH32 0x4974206973206E6F742074696D65207965740000000000000000000000000000 PUSH1 0x0 DUP3 ADD MSTORE POP JUMP JUMPDEST PUSH1 0x0 PUSH2 0x6D2 PUSH1 0x12 DUP4 PUSH2 0x550 JUMP JUMPDEST SWAP2 POP PUSH2 0x6DD DUP3 PUSH2 0x69C JUMP JUMPDEST PUSH1 0x20 DUP3 ADD SWAP1 POP SWAP2 SWAP1 POP JUMP JUMPDEST PUSH1 0x0 PUSH1 0x20 DUP3 ADD SWAP1 POP DUP2 DUP2 SUB PUSH1 0x0 DUP4 ADD MSTORE PUSH2 0x701 DUP2 PUSH2 0x6C5 JUMP JUMPDEST SWAP1 POP SWAP2 SWAP1 POP JUMP JUMPDEST PUSH32 0x4379636C65206C696D69742072656163686564206F72206E6F74207374617274 PUSH1 0x0 DUP3 ADD MSTORE PUSH32 0x6564000000000000000000000000000000000000000000000000000000000000 PUSH1 0x20 DUP3 ADD MSTORE POP JUMP JUMPDEST PUSH1 0x0 PUSH2 0x764 PUSH1 0x22 DUP4 PUSH2 0x550 JUMP JUMPDEST SWAP2 POP PUSH2 0x76F DUP3 PUSH2 0x708 JUMP JUMPDEST PUSH1 0x40 DUP3 ADD SWAP1 POP SWAP2 SWAP1 POP JUMP JUMPDEST PUSH1 0x0 PUSH1 0x20 DUP3 ADD SWAP1 POP DUP2 DUP2 SUB PUSH1 0x0 DUP4 ADD MSTORE PUSH2 0x793 DUP2 PUSH2 0x757 JUMP JUMPDEST SWAP1 POP SWAP2 SWAP1 POP JUMP INVALID LOG2 PUSH5 0x6970667358 0x22 SLT KECCAK256 PUSH4 0x13037E52 0x2A CALL PUSH1 0xFC PUSH6 0x1A9817974A64 CODECOPY 0xD SWAP13 CALLDATASIZE DUP6 0xBC PUSH32 0x79901078157D84761564736F6C63430008180033000000000000000000000000 "},"methodIdentifiers":{"checkAndUpdateExecution()":"eb445885","cycleCounter()":"f33fbaf3","initializeGroup()":"b7aa1797","nextExecutionTime()":"5acb23f5","owner()":"8da5cb5b","resetCycle()":"9271c203","webViewDisplayed()":"0e8b50de"}}}}}