{"contracts/timedVoting.sol":{"timedVoting":{"abi":[{"inputs":[],"stateMutability":"nonpayable","type":"constructor"},{"anonymous":false,"inputs":[{"indexed":false,"internalType":"uint256","name":"blockTime","type":"uint256"},{"indexed":false,"internalType":"enum timedVoting.WebViewState","name":"webViewState","type":"uint8"}],"name":"CloseWebView","type":"event"},{"anonymous":false,"inputs":[{"indexed":false,"internalType":"uint256","name":"blockTime","type":"uint256"},{"indexed":false,"internalType":"enum timedVoting.WebViewState","name":"webViewState","type":"uint8"}],"name":"DisplayWebView","type":"event"},{"inputs":[],"name":"checkAndUpdateExecution","outputs":[],"stateMutability":"nonpayable","type":"function"},{"inputs":[],"name":"closeGroup","outputs":[],"stateMutability":"nonpayable","type":"function"},{"inputs":[],"name":"createGroup","outputs":[],"stateMutability":"nonpayable","type":"function"},{"inputs":[],"name":"currentPhase","outputs":[{"internalType":"enum timedVoting.VotingPhase","name":"","type":"uint8"}],"stateMutability":"view","type":"function"},{"inputs":[],"name":"currentWebViewState","outputs":[{"internalType":"enum timedVoting.WebViewState","name":"","type":"uint8"}],"stateMutability":"view","type":"function"},{"inputs":[],"name":"getCurrentPhase","outputs":[{"internalType":"enum timedVoting.VotingPhase","name":"","type":"uint8"}],"stateMutability":"view","type":"function"},{"inputs":[],"name":"getCurrentWebViewState","outputs":[{"internalType":"enum timedVoting.WebViewState","name":"","type":"uint8"}],"stateMutability":"view","type":"function"},{"inputs":[],"name":"nextExecutionTime","outputs":[{"internalType":"uint256","name":"","type":"uint256"}],"stateMutability":"view","type":"function"},{"inputs":[],"name":"owner","outputs":[{"internalType":"address","name":"","type":"address"}],"stateMutability":"view","type":"function"}],"evm":{"bytecode":{"linkReferences":{},"object":"608060405260008060006101000a81548160ff02191690836004811115610029576100286100ab565b5b021790555060008060016101000a81548160ff02191690836002811115610053576100526100ab565b5b021790555034801561006457600080fd5b5033600260006101000a81548173ffffffffffffffffffffffffffffffffffffffff021916908373ffffffffffffffffffffffffffffffffffffffff1602179055506100da565b7f4e487b7100000000000000000000000000000000000000000000000000000000600052602160045260246000fd5b610c87806100e96000396000f3fe608060405234801561001057600080fd5b50600436106100935760003560e01c80638da5cb5b116100665780638da5cb5b146100fc57806396a700ac1461011a5780639bffa61814610124578063a3a40ea514610142578063eb4458851461016057610093565b8063055ad42e14610098578063575185ed146100b65780635acb23f5146100c05780636f44a3ae146100de575b600080fd5b6100a061016a565b6040516100ad91906108f6565b60405180910390f35b6100be61017b565b005b6100c86102e9565b6040516100d5919061092a565b60405180910390f35b6100e66102ef565b6040516100f3919061098d565b60405180910390f35b610104610305565b60405161011191906109e9565b60405180910390f35b61012261032b565b005b61012c6103e7565b604051610139919061098d565b60405180910390f35b61014a6103fa565b60405161015791906108f6565b60405180910390f35b610168610410565b005b60008054906101000a900460ff1681565b600260009054906101000a900473ffffffffffffffffffffffffffffffffffffffff1673ffffffffffffffffffffffffffffffffffffffff163373ffffffffffffffffffffffffffffffffffffffff161461020b576040517f08c379a000000000000000000000000000000000000000000000000000000000815260040161020290610a61565b60405180910390fd5b6000600481111561021f5761021e61087f565b5b60008054906101000a900460ff16600481111561023f5761023e61087f565b5b1461027f576040517f08c379a000000000000000000000000000000000000000000000000000000000815260040161027690610acd565b60405180910390fd5b603c4261028c9190610b1c565b60018190555060016000806101000a81548160ff021916908360048111156102b7576102b661087f565b5b02179055506001600060016101000a81548160ff021916908360028111156102e2576102e161087f565b5b0217905550565b60015481565b60008060019054906101000a900460ff16905090565b600260009054906101000a900473ffffffffffffffffffffffffffffffffffffffff1681565b600260009054906101000a900473ffffffffffffffffffffffffffffffffffffffff1673ffffffffffffffffffffffffffffffffffffffff163373ffffffffffffffffffffffffffffffffffffffff16146103bb576040517f08c379a00000000000000000000000000000000000000000000000000000000081526004016103b290610a61565b60405180910390fd5b60008060006101000a81548160ff021916908360048111156103e0576103df61087f565b5b0217905550565b600060019054906101000a900460ff1681565b60008060009054906101000a900460ff16905090565b600154421015610455576040517f08c379a000000000000000000000000000000000000000000000000000000000815260040161044c90610b9c565b60405180910390fd5b600060048111156104695761046861087f565b5b60008054906101000a900460ff1660048111156104895761048861087f565b5b036104c9576040517f08c379a00000000000000000000000000000000000000000000000000000000081526004016104c090610c08565b60405180910390fd5b600160048111156104dd576104dc61087f565b5b60008054906101000a900460ff1660048111156104fd576104fc61087f565b5b036105b6577f31ec5dc4c465c05678841e3f68d6523cb7223d85aa0d24af062999e1d0f7099942600060019054906101000a900460ff16604051610542929190610c28565b60405180910390a1601e426105579190610b1c565b60018190555060026000806101000a81548160ff021916908360048111156105825761058161087f565b5b021790555060008060016101000a81548160ff021916908360028111156105ac576105ab61087f565b5b021790555061087d565b600260048111156105ca576105c961087f565b5b60008054906101000a900460ff1660048111156105ea576105e961087f565b5b036106a4577f49607a19a4d26192825bd6907d87fbf366bd95fe34b73db7650aabe80a72fa8d42600060019054906101000a900460ff1660405161062f929190610c28565b60405180910390a1603c426106449190610b1c565b60018190555060036000806101000a81548160ff0219169083600481111561066f5761066e61087f565b5b02179055506002600060016101000a81548160ff0219169083600281111561069a5761069961087f565b5b021790555061087c565b600360048111156106b8576106b761087f565b5b60008054906101000a900460ff1660048111156106d8576106d761087f565b5b03610791577f31ec5dc4c465c05678841e3f68d6523cb7223d85aa0d24af062999e1d0f7099942600060019054906101000a900460ff1660405161071d929190610c28565b60405180910390a1601e426107329190610b1c565b60018190555060046000806101000a81548160ff0219169083600481111561075d5761075c61087f565b5b021790555060008060016101000a81548160ff021916908360028111156107875761078661087f565b5b021790555061087b565b6004808111156107a4576107a361087f565b5b60008054906101000a900460ff1660048111156107c4576107c361087f565b5b0361087a577f49607a19a4d26192825bd6907d87fbf366bd95fe34b73db7650aabe80a72fa8d42600060019054906101000a900460ff16604051610809929190610c28565b60405180910390a1603c4261081e9190610b1c565b60018190555060016000806101000a81548160ff021916908360048111156108495761084861087f565b5b02179055506001600060016101000a81548160ff021916908360028111156108745761087361087f565b5b02179055505b5b5b5b565b7f4e487b7100000000000000000000000000000000000000000000000000000000600052602160045260246000fd5b600581106108bf576108be61087f565b5b50565b60008190506108d0826108ae565b919050565b60006108e0826108c2565b9050919050565b6108f0816108d5565b82525050565b600060208201905061090b60008301846108e7565b92915050565b6000819050919050565b61092481610911565b82525050565b600060208201905061093f600083018461091b565b92915050565b600381106109565761095561087f565b5b50565b600081905061096782610945565b919050565b600061097782610959565b9050919050565b6109878161096c565b82525050565b60006020820190506109a2600083018461097e565b92915050565b600073ffffffffffffffffffffffffffffffffffffffff82169050919050565b60006109d3826109a8565b9050919050565b6109e3816109c8565b82525050565b60006020820190506109fe60008301846109da565b92915050565b600082825260208201905092915050565b7f43616c6c6572206973206e6f7420746865206f776e6572000000000000000000600082015250565b6000610a4b601783610a04565b9150610a5682610a15565b602082019050919050565b60006020820190508181036000830152610a7a81610a3e565b9050919050565b7f50726f6365737320616c726561647920696e6974696174656400000000000000600082015250565b6000610ab7601983610a04565b9150610ac282610a81565b602082019050919050565b60006020820190508181036000830152610ae681610aaa565b9050919050565b7f4e487b7100000000000000000000000000000000000000000000000000000000600052601160045260246000fd5b6000610b2782610911565b9150610b3283610911565b9250828201905080821115610b4a57610b49610aed565b5b92915050565b7f4974206973206e6f742074696d65207965740000000000000000000000000000600082015250565b6000610b86601283610a04565b9150610b9182610b50565b602082019050919050565b60006020820190508181036000830152610bb581610b79565b9050919050565b7f4e6f206163746976652070726f63657373000000000000000000000000000000600082015250565b6000610bf2601183610a04565b9150610bfd82610bbc565b602082019050919050565b60006020820190508181036000830152610c2181610be5565b9050919050565b6000604082019050610c3d600083018561091b565b610c4a602083018461097e565b939250505056fea2646970667358221220ef70ab50b139970cfff86f38746159147f42563726c6cff3e9c1206e2938d3c364736f6c63430008180033","opcodes":"PUSH1 0x80 PUSH1 0x40 MSTORE PUSH1 0x0 DUP1 PUSH1 0x0 PUSH2 0x100 EXP DUP2 SLOAD DUP2 PUSH1 0xFF MUL NOT AND SWAP1 DUP4 PUSH1 0x4 DUP2 GT ISZERO PUSH2 0x29 JUMPI PUSH2 0x28 PUSH2 0xAB JUMP JUMPDEST JUMPDEST MUL OR SWAP1 SSTORE POP PUSH1 0x0 DUP1 PUSH1 0x1 PUSH2 0x100 EXP DUP2 SLOAD DUP2 PUSH1 0xFF MUL NOT AND SWAP1 DUP4 PUSH1 0x2 DUP2 GT ISZERO PUSH2 0x53 JUMPI PUSH2 0x52 PUSH2 0xAB JUMP JUMPDEST JUMPDEST MUL OR SWAP1 SSTORE POP CALLVALUE DUP1 ISZERO PUSH2 0x64 JUMPI PUSH1 0x0 DUP1 REVERT JUMPDEST POP CALLER PUSH1 0x2 PUSH1 0x0 PUSH2 0x100 EXP DUP2 SLOAD DUP2 PUSH20 0xFFFFFFFFFFFFFFFFFFFFFFFFFFFFFFFFFFFFFFFF MUL NOT AND SWAP1 DUP4 PUSH20 0xFFFFFFFFFFFFFFFFFFFFFFFFFFFFFFFFFFFFFFFF AND MUL OR SWAP1 SSTORE POP PUSH2 0xDA JUMP JUMPDEST PUSH32 0x4E487B7100000000000000000000000000000000000000000000000000000000 PUSH1 0x0 MSTORE PUSH1 0x21 PUSH1 0x4 MSTORE PUSH1 0x24 PUSH1 0x0 REVERT JUMPDEST PUSH2 0xC87 DUP1 PUSH2 0xE9 PUSH1 0x0 CODECOPY PUSH1 0x0 RETURN INVALID PUSH1 0x80 PUSH1 0x40 MSTORE CALLVALUE DUP1 ISZERO PUSH2 0x10 JUMPI PUSH1 0x0 DUP1 REVERT JUMPDEST POP PUSH1 0x4 CALLDATASIZE LT PUSH2 0x93 JUMPI PUSH1 0x0 CALLDATALOAD PUSH1 0xE0 SHR DUP1 PUSH4 0x8DA5CB5B GT PUSH2 0x66 JUMPI DUP1 PUSH4 0x8DA5CB5B EQ PUSH2 0xFC JUMPI DUP1 PUSH4 0x96A700AC EQ PUSH2 0x11A JUMPI DUP1 PUSH4 0x9BFFA618 EQ PUSH2 0x124 JUMPI DUP1 PUSH4 0xA3A40EA5 EQ PUSH2 0x142 JUMPI DUP1 PUSH4 0xEB445885 EQ PUSH2 0x160 JUMPI PUSH2 0x93 JUMP JUMPDEST DUP1 PUSH4 0x55AD42E EQ PUSH2 0x98 JUMPI DUP1 PUSH4 0x575185ED EQ PUSH2 0xB6 JUMPI DUP1 PUSH4 0x5ACB23F5 EQ PUSH2 0xC0 JUMPI DUP1 PUSH4 0x6F44A3AE EQ PUSH2 0xDE JUMPI JUMPDEST PUSH1 0x0 DUP1 REVERT JUMPDEST PUSH2 0xA0 PUSH2 0x16A JUMP JUMPDEST PUSH1 0x40 MLOAD PUSH2 0xAD SWAP2 SWAP1 PUSH2 0x8F6 JUMP JUMPDEST PUSH1 0x40 MLOAD DUP1 SWAP2 SUB SWAP1 RETURN JUMPDEST PUSH2 0xBE PUSH2 0x17B JUMP JUMPDEST STOP JUMPDEST PUSH2 0xC8 PUSH2 0x2E9 JUMP JUMPDEST PUSH1 0x40 MLOAD PUSH2 0xD5 SWAP2 SWAP1 PUSH2 0x92A JUMP JUMPDEST PUSH1 0x40 MLOAD DUP1 SWAP2 SUB SWAP1 RETURN JUMPDEST PUSH2 0xE6 PUSH2 0x2EF JUMP JUMPDEST PUSH1 0x40 MLOAD PUSH2 0xF3 SWAP2 SWAP1 PUSH2 0x98D JUMP JUMPDEST PUSH1 0x40 MLOAD DUP1 SWAP2 SUB SWAP1 RETURN JUMPDEST PUSH2 0x104 PUSH2 0x305 JUMP JUMPDEST PUSH1 0x40 MLOAD PUSH2 0x111 SWAP2 SWAP1 PUSH2 0x9E9 JUMP JUMPDEST PUSH1 0x40 MLOAD DUP1 SWAP2 SUB SWAP1 RETURN JUMPDEST PUSH2 0x122 PUSH2 0x32B JUMP JUMPDEST STOP JUMPDEST PUSH2 0x12C PUSH2 0x3E7 JUMP JUMPDEST PUSH1 0x40 MLOAD PUSH2 0x139 SWAP2 SWAP1 PUSH2 0x98D JUMP JUMPDEST PUSH1 0x40 MLOAD DUP1 SWAP2 SUB SWAP1 RETURN JUMPDEST PUSH2 0x14A PUSH2 0x3FA JUMP JUMPDEST PUSH1 0x40 MLOAD PUSH2 0x157 SWAP2 SWAP1 PUSH2 0x8F6 JUMP JUMPDEST PUSH1 0x40 MLOAD DUP1 SWAP2 SUB SWAP1 RETURN JUMPDEST PUSH2 0x168 PUSH2 0x410 JUMP JUMPDEST STOP JUMPDEST PUSH1 0x0 DUP1 SLOAD SWAP1 PUSH2 0x100 EXP SWAP1 DIV PUSH1 0xFF AND DUP2 JUMP JUMPDEST PUSH1 0x2 PUSH1 0x0 SWAP1 SLOAD SWAP1 PUSH2 0x100 EXP SWAP1 DIV PUSH20 0xFFFFFFFFFFFFFFFFFFFFFFFFFFFFFFFFFFFFFFFF AND PUSH20 0xFFFFFFFFFFFFFFFFFFFFFFFFFFFFFFFFFFFFFFFF AND CALLER PUSH20 0xFFFFFFFFFFFFFFFFFFFFFFFFFFFFFFFFFFFFFFFF AND EQ PUSH2 0x20B JUMPI PUSH1 0x40 MLOAD PUSH32 0x8C379A000000000000000000000000000000000000000000000000000000000 DUP2 MSTORE PUSH1 0x4 ADD PUSH2 0x202 SWAP1 PUSH2 0xA61 JUMP JUMPDEST PUSH1 0x40 MLOAD DUP1 SWAP2 SUB SWAP1 REVERT JUMPDEST PUSH1 0x0 PUSH1 0x4 DUP2 GT ISZERO PUSH2 0x21F JUMPI PUSH2 0x21E PUSH2 0x87F JUMP JUMPDEST JUMPDEST PUSH1 0x0 DUP1 SLOAD SWAP1 PUSH2 0x100 EXP SWAP1 DIV PUSH1 0xFF AND PUSH1 0x4 DUP2 GT ISZERO PUSH2 0x23F JUMPI PUSH2 0x23E PUSH2 0x87F JUMP JUMPDEST JUMPDEST EQ PUSH2 0x27F JUMPI PUSH1 0x40 MLOAD PUSH32 0x8C379A000000000000000000000000000000000000000000000000000000000 DUP2 MSTORE PUSH1 0x4 ADD PUSH2 0x276 SWAP1 PUSH2 0xACD JUMP JUMPDEST PUSH1 0x40 MLOAD DUP1 SWAP2 SUB SWAP1 REVERT JUMPDEST PUSH1 0x3C TIMESTAMP PUSH2 0x28C SWAP2 SWAP1 PUSH2 0xB1C JUMP JUMPDEST PUSH1 0x1 DUP2 SWAP1 SSTORE POP PUSH1 0x1 PUSH1 0x0 DUP1 PUSH2 0x100 EXP DUP2 SLOAD DUP2 PUSH1 0xFF MUL NOT AND SWAP1 DUP4 PUSH1 0x4 DUP2 GT ISZERO PUSH2 0x2B7 JUMPI PUSH2 0x2B6 PUSH2 0x87F JUMP JUMPDEST JUMPDEST MUL OR SWAP1 SSTORE POP PUSH1 0x1 PUSH1 0x0 PUSH1 0x1 PUSH2 0x100 EXP DUP2 SLOAD DUP2 PUSH1 0xFF MUL NOT AND SWAP1 DUP4 PUSH1 0x2 DUP2 GT ISZERO PUSH2 0x2E2 JUMPI PUSH2 0x2E1 PUSH2 0x87F JUMP JUMPDEST JUMPDEST MUL OR SWAP1 SSTORE POP JUMP JUMPDEST PUSH1 0x1 SLOAD DUP2 JUMP JUMPDEST PUSH1 0x0 DUP1 PUSH1 0x1 SWAP1 SLOAD SWAP1 PUSH2 0x100 EXP SWAP1 DIV PUSH1 0xFF AND SWAP1 POP SWAP1 JUMP JUMPDEST PUSH1 0x2 PUSH1 0x0 SWAP1 SLOAD SWAP1 PUSH2 0x100 EXP SWAP1 DIV PUSH20 0xFFFFFFFFFFFFFFFFFFFFFFFFFFFFFFFFFFFFFFFF AND DUP2 JUMP JUMPDEST PUSH1 0x2 PUSH1 0x0 SWAP1 SLOAD SWAP1 PUSH2 0x100 EXP SWAP1 DIV PUSH20 0xFFFFFFFFFFFFFFFFFFFFFFFFFFFFFFFFFFFFFFFF AND PUSH20 0xFFFFFFFFFFFFFFFFFFFFFFFFFFFFFFFFFFFFFFFF AND CALLER PUSH20 0xFFFFFFFFFFFFFFFFFFFFFFFFFFFFFFFFFFFFFFFF AND EQ PUSH2 0x3BB JUMPI PUSH1 0x40 MLOAD PUSH32 0x8C379A000000000000000000000000000000000000000000000000000000000 DUP2 MSTORE PUSH1 0x4 ADD PUSH2 0x3B2 SWAP1 PUSH2 0xA61 JUMP JUMPDEST PUSH1 0x40 MLOAD DUP1 SWAP2 SUB SWAP1 REVERT JUMPDEST PUSH1 0x0 DUP1 PUSH1 0x0 PUSH2 0x100 EXP DUP2 SLOAD DUP2 PUSH1 0xFF MUL NOT AND SWAP1 DUP4 PUSH1 0x4 DUP2 GT ISZERO PUSH2 0x3E0 JUMPI PUSH2 0x3DF PUSH2 0x87F JUMP JUMPDEST JUMPDEST MUL OR SWAP1 SSTORE POP JUMP JUMPDEST PUSH1 0x0 PUSH1 0x1 SWAP1 SLOAD SWAP1 PUSH2 0x100 EXP SWAP1 DIV PUSH1 0xFF AND DUP2 JUMP JUMPDEST PUSH1 0x0 DUP1 PUSH1 0x0 SWAP1 SLOAD SWAP1 PUSH2 0x100 EXP SWAP1 DIV PUSH1 0xFF AND SWAP1 POP SWAP1 JUMP JUMPDEST PUSH1 0x1 SLOAD TIMESTAMP LT ISZERO PUSH2 0x455 JUMPI PUSH1 0x40 MLOAD PUSH32 0x8C379A000000000000000000000000000000000000000000000000000000000 DUP2 MSTORE PUSH1 0x4 ADD PUSH2 0x44C SWAP1 PUSH2 0xB9C JUMP JUMPDEST PUSH1 0x40 MLOAD DUP1 SWAP2 SUB SWAP1 REVERT JUMPDEST PUSH1 0x0 PUSH1 0x4 DUP2 GT ISZERO PUSH2 0x469 JUMPI PUSH2 0x468 PUSH2 0x87F JUMP JUMPDEST JUMPDEST PUSH1 0x0 DUP1 SLOAD SWAP1 PUSH2 0x100 EXP SWAP1 DIV PUSH1 0xFF AND PUSH1 0x4 DUP2 GT ISZERO PUSH2 0x489 JUMPI PUSH2 0x488 PUSH2 0x87F JUMP JUMPDEST JUMPDEST SUB PUSH2 0x4C9 JUMPI PUSH1 0x40 MLOAD PUSH32 0x8C379A000000000000000000000000000000000000000000000000000000000 DUP2 MSTORE PUSH1 0x4 ADD PUSH2 0x4C0 SWAP1 PUSH2 0xC08 JUMP JUMPDEST PUSH1 0x40 MLOAD DUP1 SWAP2 SUB SWAP1 REVERT JUMPDEST PUSH1 0x1 PUSH1 0x4 DUP2 GT ISZERO PUSH2 0x4DD JUMPI PUSH2 0x4DC PUSH2 0x87F JUMP JUMPDEST JUMPDEST PUSH1 0x0 DUP1 SLOAD SWAP1 PUSH2 0x100 EXP SWAP1 DIV PUSH1 0xFF AND PUSH1 0x4 DUP2 GT ISZERO PUSH2 0x4FD JUMPI PUSH2 0x4FC PUSH2 0x87F JUMP JUMPDEST JUMPDEST SUB PUSH2 0x5B6 JUMPI PUSH32 0x31EC5DC4C465C05678841E3F68D6523CB7223D85AA0D24AF062999E1D0F70999 TIMESTAMP PUSH1 0x0 PUSH1 0x1 SWAP1 SLOAD SWAP1 PUSH2 0x100 EXP SWAP1 DIV PUSH1 0xFF AND PUSH1 0x40 MLOAD PUSH2 0x542 SWAP3 SWAP2 SWAP1 PUSH2 0xC28 JUMP JUMPDEST PUSH1 0x40 MLOAD DUP1 SWAP2 SUB SWAP1 LOG1 PUSH1 0x1E TIMESTAMP PUSH2 0x557 SWAP2 SWAP1 PUSH2 0xB1C JUMP JUMPDEST PUSH1 0x1 DUP2 SWAP1 SSTORE POP PUSH1 0x2 PUSH1 0x0 DUP1 PUSH2 0x100 EXP DUP2 SLOAD DUP2 PUSH1 0xFF MUL NOT AND SWAP1 DUP4 PUSH1 0x4 DUP2 GT ISZERO PUSH2 0x582 JUMPI PUSH2 0x581 PUSH2 0x87F JUMP JUMPDEST JUMPDEST MUL OR SWAP1 SSTORE POP PUSH1 0x0 DUP1 PUSH1 0x1 PUSH2 0x100 EXP DUP2 SLOAD DUP2 PUSH1 0xFF MUL NOT AND SWAP1 DUP4 PUSH1 0x2 DUP2 GT ISZERO PUSH2 0x5AC JUMPI PUSH2 0x5AB PUSH2 0x87F JUMP JUMPDEST JUMPDEST MUL OR SWAP1 SSTORE POP PUSH2 0x87D JUMP JUMPDEST PUSH1 0x2 PUSH1 0x4 DUP2 GT ISZERO PUSH2 0x5CA JUMPI PUSH2 0x5C9 PUSH2 0x87F JUMP JUMPDEST JUMPDEST PUSH1 0x0 DUP1 SLOAD SWAP1 PUSH2 0x100 EXP SWAP1 DIV PUSH1 0xFF AND PUSH1 0x4 DUP2 GT ISZERO PUSH2 0x5EA JUMPI PUSH2 0x5E9 PUSH2 0x87F JUMP JUMPDEST JUMPDEST SUB PUSH2 0x6A4 JUMPI PUSH32 0x49607A19A4D26192825BD6907D87FBF366BD95FE34B73DB7650AABE80A72FA8D TIMESTAMP PUSH1 0x0 PUSH1 0x1 SWAP1 SLOAD SWAP1 PUSH2 0x100 EXP SWAP1 DIV PUSH1 0xFF AND PUSH1 0x40 MLOAD PUSH2 0x62F SWAP3 SWAP2 SWAP1 PUSH2 0xC28 JUMP JUMPDEST PUSH1 0x40 MLOAD DUP1 SWAP2 SUB SWAP1 LOG1 PUSH1 0x3C TIMESTAMP PUSH2 0x644 SWAP2 SWAP1 PUSH2 0xB1C JUMP JUMPDEST PUSH1 0x1 DUP2 SWAP1 SSTORE POP PUSH1 0x3 PUSH1 0x0 DUP1 PUSH2 0x100 EXP DUP2 SLOAD DUP2 PUSH1 0xFF MUL NOT AND SWAP1 DUP4 PUSH1 0x4 DUP2 GT ISZERO PUSH2 0x66F JUMPI PUSH2 0x66E PUSH2 0x87F JUMP JUMPDEST JUMPDEST MUL OR SWAP1 SSTORE POP PUSH1 0x2 PUSH1 0x0 PUSH1 0x1 PUSH2 0x100 EXP DUP2 SLOAD DUP2 PUSH1 0xFF MUL NOT AND SWAP1 DUP4 PUSH1 0x2 DUP2 GT ISZERO PUSH2 0x69A JUMPI PUSH2 0x699 PUSH2 0x87F JUMP JUMPDEST JUMPDEST MUL OR SWAP1 SSTORE POP PUSH2 0x87C JUMP JUMPDEST PUSH1 0x3 PUSH1 0x4 DUP2 GT ISZERO PUSH2 0x6B8 JUMPI PUSH2 0x6B7 PUSH2 0x87F JUMP JUMPDEST JUMPDEST PUSH1 0x0 DUP1 SLOAD SWAP1 PUSH2 0x100 EXP SWAP1 DIV PUSH1 0xFF AND PUSH1 0x4 DUP2 GT ISZERO PUSH2 0x6D8 JUMPI PUSH2 0x6D7 PUSH2 0x87F JUMP JUMPDEST JUMPDEST SUB PUSH2 0x791 JUMPI PUSH32 0x31EC5DC4C465C05678841E3F68D6523CB7223D85AA0D24AF062999E1D0F70999 TIMESTAMP PUSH1 0x0 PUSH1 0x1 SWAP1 SLOAD SWAP1 PUSH2 0x100 EXP SWAP1 DIV PUSH1 0xFF AND PUSH1 0x40 MLOAD PUSH2 0x71D SWAP3 SWAP2 SWAP1 PUSH2 0xC28 JUMP JUMPDEST PUSH1 0x40 MLOAD DUP1 SWAP2 SUB SWAP1 LOG1 PUSH1 0x1E TIMESTAMP PUSH2 0x732 SWAP2 SWAP1 PUSH2 0xB1C JUMP JUMPDEST PUSH1 0x1 DUP2 SWAP1 SSTORE POP PUSH1 0x4 PUSH1 0x0 DUP1 PUSH2 0x100 EXP DUP2 SLOAD DUP2 PUSH1 0xFF MUL NOT AND SWAP1 DUP4 PUSH1 0x4 DUP2 GT ISZERO PUSH2 0x75D JUMPI PUSH2 0x75C PUSH2 0x87F JUMP JUMPDEST JUMPDEST MUL OR SWAP1 SSTORE POP PUSH1 0x0 DUP1 PUSH1 0x1 PUSH2 0x100 EXP DUP2 SLOAD DUP2 PUSH1 0xFF MUL NOT AND SWAP1 DUP4 PUSH1 0x2 DUP2 GT ISZERO PUSH2 0x787 JUMPI PUSH2 0x786 PUSH2 0x87F JUMP JUMPDEST JUMPDEST MUL OR SWAP1 SSTORE POP PUSH2 0x87B JUMP JUMPDEST PUSH1 0x4 DUP1 DUP2 GT ISZERO PUSH2 0x7A4 JUMPI PUSH2 0x7A3 PUSH2 0x87F JUMP JUMPDEST JUMPDEST PUSH1 0x0 DUP1 SLOAD SWAP1 PUSH2 0x100 EXP SWAP1 DIV PUSH1 0xFF AND PUSH1 0x4 DUP2 GT ISZERO PUSH2 0x7C4 JUMPI PUSH2 0x7C3 PUSH2 0x87F JUMP JUMPDEST JUMPDEST SUB PUSH2 0x87A JUMPI PUSH32 0x49607A19A4D26192825BD6907D87FBF366BD95FE34B73DB7650AABE80A72FA8D TIMESTAMP PUSH1 0x0 PUSH1 0x1 SWAP1 SLOAD SWAP1 PUSH2 0x100 EXP SWAP1 DIV PUSH1 0xFF AND PUSH1 0x40 MLOAD PUSH2 0x809 SWAP3 SWAP2 SWAP1 PUSH2 0xC28 JUMP JUMPDEST PUSH1 0x40 MLOAD DUP1 SWAP2 SUB SWAP1 LOG1 PUSH1 0x3C TIMESTAMP PUSH2 0x81E SWAP2 SWAP1 PUSH2 0xB1C JUMP JUMPDEST PUSH1 0x1 DUP2 SWAP1 SSTORE POP PUSH1 0x1 PUSH1 0x0 DUP1 PUSH2 0x100 EXP DUP2 SLOAD DUP2 PUSH1 0xFF MUL NOT AND SWAP1 DUP4 PUSH1 0x4 DUP2 GT ISZERO PUSH2 0x849 JUMPI PUSH2 0x848 PUSH2 0x87F JUMP JUMPDEST JUMPDEST MUL OR SWAP1 SSTORE POP PUSH1 0x1 PUSH1 0x0 PUSH1 0x1 PUSH2 0x100 EXP DUP2 SLOAD DUP2 PUSH1 0xFF MUL NOT AND SWAP1 DUP4 PUSH1 0x2 DUP2 GT ISZERO PUSH2 0x874 JUMPI PUSH2 0x873 PUSH2 0x87F JUMP JUMPDEST JUMPDEST MUL OR SWAP1 SSTORE POP JUMPDEST JUMPDEST JUMPDEST JUMPDEST JUMP JUMPDEST PUSH32 0x4E487B7100000000000000000000000000000000000000000000000000000000 PUSH1 0x0 MSTORE PUSH1 0x21 PUSH1 0x4 MSTORE PUSH1 0x24 PUSH1 0x0 REVERT JUMPDEST PUSH1 0x5 DUP2 LT PUSH2 0x8BF JUMPI PUSH2 0x8BE PUSH2 0x87F JUMP JUMPDEST JUMPDEST POP JUMP JUMPDEST PUSH1 0x0 DUP2 SWAP1 POP PUSH2 0x8D0 DUP3 PUSH2 0x8AE JUMP JUMPDEST SWAP2 SWAP1 POP JUMP JUMPDEST PUSH1 0x0 PUSH2 0x8E0 DUP3 PUSH2 0x8C2 JUMP JUMPDEST SWAP1 POP SWAP2 SWAP1 POP JUMP JUMPDEST PUSH2 0x8F0 DUP2 PUSH2 0x8D5 JUMP JUMPDEST DUP3 MSTORE POP POP JUMP JUMPDEST PUSH1 0x0 PUSH1 0x20 DUP3 ADD SWAP1 POP PUSH2 0x90B PUSH1 0x0 DUP4 ADD DUP5 PUSH2 0x8E7 JUMP JUMPDEST SWAP3 SWAP2 POP POP JUMP JUMPDEST PUSH1 0x0 DUP2 SWAP1 POP SWAP2 SWAP1 POP JUMP JUMPDEST PUSH2 0x924 DUP2 PUSH2 0x911 JUMP JUMPDEST DUP3 MSTORE POP POP JUMP JUMPDEST PUSH1 0x0 PUSH1 0x20 DUP3 ADD SWAP1 POP PUSH2 0x93F PUSH1 0x0 DUP4 ADD DUP5 PUSH2 0x91B JUMP JUMPDEST SWAP3 SWAP2 POP POP JUMP JUMPDEST PUSH1 0x3 DUP2 LT PUSH2 0x956 JUMPI PUSH2 0x955 PUSH2 0x87F JUMP JUMPDEST JUMPDEST POP JUMP JUMPDEST PUSH1 0x0 DUP2 SWAP1 POP PUSH2 0x967 DUP3 PUSH2 0x945 JUMP JUMPDEST SWAP2 SWAP1 POP JUMP JUMPDEST PUSH1 0x0 PUSH2 0x977 DUP3 PUSH2 0x959 JUMP JUMPDEST SWAP1 POP SWAP2 SWAP1 POP JUMP JUMPDEST PUSH2 0x987 DUP2 PUSH2 0x96C JUMP JUMPDEST DUP3 MSTORE POP POP JUMP JUMPDEST PUSH1 0x0 PUSH1 0x20 DUP3 ADD SWAP1 POP PUSH2 0x9A2 PUSH1 0x0 DUP4 ADD DUP5 PUSH2 0x97E JUMP JUMPDEST SWAP3 SWAP2 POP POP JUMP JUMPDEST PUSH1 0x0 PUSH20 0xFFFFFFFFFFFFFFFFFFFFFFFFFFFFFFFFFFFFFFFF DUP3 AND SWAP1 POP SWAP2 SWAP1 POP JUMP JUMPDEST PUSH1 0x0 PUSH2 0x9D3 DUP3 PUSH2 0x9A8 JUMP JUMPDEST SWAP1 POP SWAP2 SWAP1 POP JUMP JUMPDEST PUSH2 0x9E3 DUP2 PUSH2 0x9C8 JUMP JUMPDEST DUP3 MSTORE POP POP JUMP JUMPDEST PUSH1 0x0 PUSH1 0x20 DUP3 ADD SWAP1 POP PUSH2 0x9FE PUSH1 0x0 DUP4 ADD DUP5 PUSH2 0x9DA JUMP JUMPDEST SWAP3 SWAP2 POP POP JUMP JUMPDEST PUSH1 0x0 DUP3 DUP3 MSTORE PUSH1 0x20 DUP3 ADD SWAP1 POP SWAP3 SWAP2 POP POP JUMP JUMPDEST PUSH32 0x43616C6C6572206973206E6F7420746865206F776E6572000000000000000000 PUSH1 0x0 DUP3 ADD MSTORE POP JUMP JUMPDEST PUSH1 0x0 PUSH2 0xA4B PUSH1 0x17 DUP4 PUSH2 0xA04 JUMP JUMPDEST SWAP2 POP PUSH2 0xA56 DUP3 PUSH2 0xA15 JUMP JUMPDEST PUSH1 0x20 DUP3 ADD SWAP1 POP SWAP2 SWAP1 POP JUMP JUMPDEST PUSH1 0x0 PUSH1 0x20 DUP3 ADD SWAP1 POP DUP2 DUP2 SUB PUSH1 0x0 DUP4 ADD MSTORE PUSH2 0xA7A DUP2 PUSH2 0xA3E JUMP JUMPDEST SWAP1 POP SWAP2 SWAP1 POP JUMP JUMPDEST PUSH32 0x50726F6365737320616C726561647920696E6974696174656400000000000000 PUSH1 0x0 DUP3 ADD MSTORE POP JUMP JUMPDEST PUSH1 0x0 PUSH2 0xAB7 PUSH1 0x19 DUP4 PUSH2 0xA04 JUMP JUMPDEST SWAP2 POP PUSH2 0xAC2 DUP3 PUSH2 0xA81 JUMP JUMPDEST PUSH1 0x20 DUP3 ADD SWAP1 POP SWAP2 SWAP1 POP JUMP JUMPDEST PUSH1 0x0 PUSH1 0x20 DUP3 ADD SWAP1 POP DUP2 DUP2 SUB PUSH1 0x0 DUP4 ADD MSTORE PUSH2 0xAE6 DUP2 PUSH2 0xAAA JUMP JUMPDEST SWAP1 POP SWAP2 SWAP1 POP JUMP JUMPDEST PUSH32 0x4E487B7100000000000000000000000000000000000000000000000000000000 PUSH1 0x0 MSTORE PUSH1 0x11 PUSH1 0x4 MSTORE PUSH1 0x24 PUSH1 0x0 REVERT JUMPDEST PUSH1 0x0 PUSH2 0xB27 DUP3 PUSH2 0x911 JUMP JUMPDEST SWAP2 POP PUSH2 0xB32 DUP4 PUSH2 0x911 JUMP JUMPDEST SWAP3 POP DUP3 DUP3 ADD SWAP1 POP DUP1 DUP3 GT ISZERO PUSH2 0xB4A JUMPI PUSH2 0xB49 PUSH2 0xAED JUMP JUMPDEST JUMPDEST SWAP3 SWAP2 POP POP JUMP JUMPDEST PUSH32 0x4974206973206E6F742074696D65207965740000000000000000000000000000 PUSH1 0x0 DUP3 ADD MSTORE POP JUMP JUMPDEST PUSH1 0x0 PUSH2 0xB86 PUSH1 0x12 DUP4 PUSH2 0xA04 JUMP JUMPDEST SWAP2 POP PUSH2 0xB91 DUP3 PUSH2 0xB50 JUMP JUMPDEST PUSH1 0x20 DUP3 ADD SWAP1 POP SWAP2 SWAP1 POP JUMP JUMPDEST PUSH1 0x0 PUSH1 0x20 DUP3 ADD SWAP1 POP DUP2 DUP2 SUB PUSH1 0x0 DUP4 ADD MSTORE PUSH2 0xBB5 DUP2 PUSH2 0xB79 JUMP JUMPDEST SWAP1 POP SWAP2 SWAP1 POP JUMP JUMPDEST PUSH32 0x4E6F206163746976652070726F63657373000000000000000000000000000000 PUSH1 0x0 DUP3 ADD MSTORE POP JUMP JUMPDEST PUSH1 0x0 PUSH2 0xBF2 PUSH1 0x11 DUP4 PUSH2 0xA04 JUMP JUMPDEST SWAP2 POP PUSH2 0xBFD DUP3 PUSH2 0xBBC JUMP JUMPDEST PUSH1 0x20 DUP3 ADD SWAP1 POP SWAP2 SWAP1 POP JUMP JUMPDEST PUSH1 0x0 PUSH1 0x20 DUP3 ADD SWAP1 POP DUP2 DUP2 SUB PUSH1 0x0 DUP4 ADD MSTORE PUSH2 0xC21 DUP2 PUSH2 0xBE5 JUMP JUMPDEST SWAP1 POP SWAP2 SWAP1 POP JUMP JUMPDEST PUSH1 0x0 PUSH1 0x40 DUP3 ADD SWAP1 POP PUSH2 0xC3D PUSH1 0x0 DUP4 ADD DUP6 PUSH2 0x91B JUMP JUMPDEST PUSH2 0xC4A PUSH1 0x20 DUP4 ADD DUP5 PUSH2 0x97E JUMP JUMPDEST SWAP4 SWAP3 POP POP POP JUMP INVALID LOG2 PUSH5 0x6970667358 0x22 SLT KECCAK256 0xEF PUSH17 0xAB50B139970CFFF86F38746159147F4256 CALLDATACOPY 0x26 0xC6 0xCF RETURN 0xE9 0xC1 KECCAK256 PUSH15 0x2938D3C364736F6C63430008180033 "},"methodIdentifiers":{"checkAndUpdateExecution()":"eb445885","closeGroup()":"96a700ac","createGroup()":"575185ed","currentPhase()":"055ad42e","currentWebViewState()":"9bffa618","getCurrentPhase()":"a3a40ea5","getCurrentWebViewState()":"6f44a3ae","nextExecutionTime()":"5acb23f5","owner()":"8da5cb5b"}}}}}