{
  "_format": "hh-sol-artifact-1",
  "contractName": "timedVoting",
  "sourceName": "contracts/timedVoting.sol",
  "abi": [
    {
      "inputs": [],
      "stateMutability": "nonpayable",
      "type": "constructor"
    },
    {
      "anonymous": false,
      "inputs": [
        {
          "indexed": false,
          "internalType": "uint256",
          "name": "blockTime",
          "type": "uint256"
        },
        {
          "indexed": false,
          "internalType": "enum timedVoting.WebViewState",
          "name": "webViewState",
          "type": "uint8"
        }
      ],
      "name": "CloseWebView",
      "type": "event"
    },
    {
      "anonymous": false,
      "inputs": [
        {
          "indexed": false,
          "internalType": "uint256",
          "name": "blockTime",
          "type": "uint256"
        },
        {
          "indexed": false,
          "internalType": "enum timedVoting.WebViewState",
          "name": "webViewState",
          "type": "uint8"
        }
      ],
      "name": "DisplayWebView",
      "type": "event"
    },
    {
      "inputs": [],
      "name": "checkAndUpdateExecution",
      "outputs": [],
      "stateMutability": "nonpayable",
      "type": "function"
    },
    {
      "inputs": [],
      "name": "closeGroup",
      "outputs": [],
      "stateMutability": "nonpayable",
      "type": "function"
    },
    {
      "inputs": [],
      "name": "createGroup",
      "outputs": [],
      "stateMutability": "nonpayable",
      "type": "function"
    },
    {
      "inputs": [],
      "name": "currentPhase",
      "outputs": [
        {
          "internalType": "enum timedVoting.VotingPhase",
          "name": "",
          "type": "uint8"
        }
      ],
      "stateMutability": "view",
      "type": "function"
    },
    {
      "inputs": [],
      "name": "currentWebViewState",
      "outputs": [
        {
          "internalType": "enum timedVoting.WebViewState",
          "name": "",
          "type": "uint8"
        }
      ],
      "stateMutability": "view",
      "type": "function"
    },
    {
      "inputs": [],
      "name": "getCurrentPhase",
      "outputs": [
        {
          "internalType": "enum timedVoting.VotingPhase",
          "name": "",
          "type": "uint8"
        }
      ],
      "stateMutability": "view",
      "type": "function"
    },
    {
      "inputs": [],
      "name": "getCurrentWebViewState",
      "outputs": [
        {
          "internalType": "enum timedVoting.WebViewState",
          "name": "",
          "type": "uint8"
        }
      ],
      "stateMutability": "view",
      "type": "function"
    },
    {
      "inputs": [],
      "name": "nextExecutionTime",
      "outputs": [
        {
          "internalType": "uint256",
          "name": "",
          "type": "uint256"
        }
      ],
      "stateMutability": "view",
      "type": "function"
    },
    {
      "inputs": [],
      "name": "owner",
      "outputs": [
        {
          "internalType": "address",
          "name": "",
          "type": "address"
        }
      ],
      "stateMutability": "view",
      "type": "function"
    }
  ],
  "bytecode": "0x608060405260008060006101000a81548160ff02191690836004811115610029576100286100ab565b5b021790555060008060016101000a81548160ff02191690836002811115610053576100526100ab565b5b021790555034801561006457600080fd5b5033600260006101000a81548173ffffffffffffffffffffffffffffffffffffffff021916908373ffffffffffffffffffffffffffffffffffffffff1602179055506100da565b7f4e487b7100000000000000000000000000000000000000000000000000000000600052602160045260246000fd5b610c87806100e96000396000f3fe608060405234801561001057600080fd5b50600436106100935760003560e01c80638da5cb5b116100665780638da5cb5b146100fc57806396a700ac1461011a5780639bffa61814610124578063a3a40ea514610142578063eb4458851461016057610093565b8063055ad42e14610098578063575185ed146100b65780635acb23f5146100c05780636f44a3ae146100de575b600080fd5b6100a061016a565b6040516100ad91906108f6565b60405180910390f35b6100be61017b565b005b6100c86102e9565b6040516100d5919061092a565b60405180910390f35b6100e66102ef565b6040516100f3919061098d565b60405180910390f35b610104610305565b60405161011191906109e9565b60405180910390f35b61012261032b565b005b61012c6103e7565b604051610139919061098d565b60405180910390f35b61014a6103fa565b60405161015791906108f6565b60405180910390f35b610168610410565b005b60008054906101000a900460ff1681565b600260009054906101000a900473ffffffffffffffffffffffffffffffffffffffff1673ffffffffffffffffffffffffffffffffffffffff163373ffffffffffffffffffffffffffffffffffffffff161461020b576040517f08c379a000000000000000000000000000000000000000000000000000000000815260040161020290610a61565b60405180910390fd5b6000600481111561021f5761021e61087f565b5b60008054906101000a900460ff16600481111561023f5761023e61087f565b5b1461027f576040517f08c379a000000000000000000000000000000000000000000000000000000000815260040161027690610acd565b60405180910390fd5b603c4261028c9190610b1c565b60018190555060016000806101000a81548160ff021916908360048111156102b7576102b661087f565b5b02179055506001600060016101000a81548160ff021916908360028111156102e2576102e161087f565b5b0217905550565b60015481565b60008060019054906101000a900460ff16905090565b600260009054906101000a900473ffffffffffffffffffffffffffffffffffffffff1681565b600260009054906101000a900473ffffffffffffffffffffffffffffffffffffffff1673ffffffffffffffffffffffffffffffffffffffff163373ffffffffffffffffffffffffffffffffffffffff16146103bb576040517f08c379a00000000000000000000000000000000000000000000000000000000081526004016103b290610a61565b60405180910390fd5b60008060006101000a81548160ff021916908360048111156103e0576103df61087f565b5b0217905550565b600060019054906101000a900460ff1681565b60008060009054906101000a900460ff16905090565b600154421015610455576040517f08c379a000000000000000000000000000000000000000000000000000000000815260040161044c90610b9c565b60405180910390fd5b600060048111156104695761046861087f565b5b60008054906101000a900460ff1660048111156104895761048861087f565b5b036104c9576040517f08c379a00000000000000000000000000000000000000000000000000000000081526004016104c090610c08565b60405180910390fd5b600160048111156104dd576104dc61087f565b5b60008054906101000a900460ff1660048111156104fd576104fc61087f565b5b036105b6577f31ec5dc4c465c05678841e3f68d6523cb7223d85aa0d24af062999e1d0f7099942600060019054906101000a900460ff16604051610542929190610c28565b60405180910390a1601e426105579190610b1c565b60018190555060026000806101000a81548160ff021916908360048111156105825761058161087f565b5b021790555060008060016101000a81548160ff021916908360028111156105ac576105ab61087f565b5b021790555061087d565b600260048111156105ca576105c961087f565b5b60008054906101000a900460ff1660048111156105ea576105e961087f565b5b036106a4577f49607a19a4d26192825bd6907d87fbf366bd95fe34b73db7650aabe80a72fa8d42600060019054906101000a900460ff1660405161062f929190610c28565b60405180910390a1603c426106449190610b1c565b60018190555060036000806101000a81548160ff0219169083600481111561066f5761066e61087f565b5b02179055506002600060016101000a81548160ff0219169083600281111561069a5761069961087f565b5b021790555061087c565b600360048111156106b8576106b761087f565b5b60008054906101000a900460ff1660048111156106d8576106d761087f565b5b03610791577f31ec5dc4c465c05678841e3f68d6523cb7223d85aa0d24af062999e1d0f7099942600060019054906101000a900460ff1660405161071d929190610c28565b60405180910390a1601e426107329190610b1c565b60018190555060046000806101000a81548160ff0219169083600481111561075d5761075c61087f565b5b021790555060008060016101000a81548160ff021916908360028111156107875761078661087f565b5b021790555061087b565b6004808111156107a4576107a361087f565b5b60008054906101000a900460ff1660048111156107c4576107c361087f565b5b0361087a577f49607a19a4d26192825bd6907d87fbf366bd95fe34b73db7650aabe80a72fa8d42600060019054906101000a900460ff16604051610809929190610c28565b60405180910390a1603c4261081e9190610b1c565b60018190555060016000806101000a81548160ff021916908360048111156108495761084861087f565b5b02179055506001600060016101000a81548160ff021916908360028111156108745761087361087f565b5b02179055505b5b5b5b565b7f4e487b7100000000000000000000000000000000000000000000000000000000600052602160045260246000fd5b600581106108bf576108be61087f565b5b50565b60008190506108d0826108ae565b919050565b60006108e0826108c2565b9050919050565b6108f0816108d5565b82525050565b600060208201905061090b60008301846108e7565b92915050565b6000819050919050565b61092481610911565b82525050565b600060208201905061093f600083018461091b565b92915050565b600381106109565761095561087f565b5b50565b600081905061096782610945565b919050565b600061097782610959565b9050919050565b6109878161096c565b82525050565b60006020820190506109a2600083018461097e565b92915050565b600073ffffffffffffffffffffffffffffffffffffffff82169050919050565b60006109d3826109a8565b9050919050565b6109e3816109c8565b82525050565b60006020820190506109fe60008301846109da565b92915050565b600082825260208201905092915050565b7f43616c6c6572206973206e6f7420746865206f776e6572000000000000000000600082015250565b6000610a4b601783610a04565b9150610a5682610a15565b602082019050919050565b60006020820190508181036000830152610a7a81610a3e565b9050919050565b7f50726f6365737320616c726561647920696e6974696174656400000000000000600082015250565b6000610ab7601983610a04565b9150610ac282610a81565b602082019050919050565b60006020820190508181036000830152610ae681610aaa565b9050919050565b7f4e487b7100000000000000000000000000000000000000000000000000000000600052601160045260246000fd5b6000610b2782610911565b9150610b3283610911565b9250828201905080821115610b4a57610b49610aed565b5b92915050565b7f4974206973206e6f742074696d65207965740000000000000000000000000000600082015250565b6000610b86601283610a04565b9150610b9182610b50565b602082019050919050565b60006020820190508181036000830152610bb581610b79565b9050919050565b7f4e6f206163746976652070726f63657373000000000000000000000000000000600082015250565b6000610bf2601183610a04565b9150610bfd82610bbc565b602082019050919050565b60006020820190508181036000830152610c2181610be5565b9050919050565b6000604082019050610c3d600083018561091b565b610c4a602083018461097e565b939250505056fea2646970667358221220ef70ab50b139970cfff86f38746159147f42563726c6cff3e9c1206e2938d3c364736f6c63430008180033",
  "linkReferences": {},
  "deployedLinkReferences": {}
}