{
  "_format": "hh-sol-artifact-1",
  "contractName": "timedVoting",
  "sourceName": "contracts/timedVoting.sol",
  "abi": [
    {
      "inputs": [],
      "stateMutability": "nonpayable",
      "type": "constructor"
    },
    {
      "anonymous": false,
      "inputs": [
        {
          "indexed": false,
          "internalType": "uint256",
          "name": "blockTime",
          "type": "uint256"
        },
        {
          "indexed": false,
          "internalType": "bool",
          "name": "activeGroup",
          "type": "bool"
        }
      ],
      "name": "CloseWebView",
      "type": "event"
    },
    {
      "anonymous": false,
      "inputs": [
        {
          "indexed": false,
          "internalType": "uint256",
          "name": "blockTime",
          "type": "uint256"
        },
        {
          "indexed": false,
          "internalType": "bool",
          "name": "activeGroup",
          "type": "bool"
        }
      ],
      "name": "DisplayWebView",
      "type": "event"
    },
    {
      "inputs": [],
      "name": "activeGroup",
      "outputs": [
        {
          "internalType": "bool",
          "name": "",
          "type": "bool"
        }
      ],
      "stateMutability": "view",
      "type": "function"
    },
    {
      "inputs": [],
      "name": "checkAndUpdateExecution",
      "outputs": [],
      "stateMutability": "nonpayable",
      "type": "function"
    },
    {
      "inputs": [],
      "name": "closeGroup",
      "outputs": [],
      "stateMutability": "nonpayable",
      "type": "function"
    },
    {
      "inputs": [],
      "name": "createGroup",
      "outputs": [],
      "stateMutability": "nonpayable",
      "type": "function"
    },
    {
      "inputs": [],
      "name": "nextExecutionTime",
      "outputs": [
        {
          "internalType": "uint256",
          "name": "",
          "type": "uint256"
        }
      ],
      "stateMutability": "view",
      "type": "function"
    },
    {
      "inputs": [],
      "name": "owner",
      "outputs": [
        {
          "internalType": "address",
          "name": "",
          "type": "address"
        }
      ],
      "stateMutability": "view",
      "type": "function"
    },
    {
      "inputs": [],
      "name": "webViewDisplayed",
      "outputs": [
        {
          "internalType": "bool",
          "name": "",
          "type": "bool"
        }
      ],
      "stateMutability": "view",
      "type": "function"
    }
  ],
  "bytecode": "0x60806040526000600160006101000a81548160ff02191690831515021790555060006001806101000a81548160ff02191690831515021790555034801561004557600080fd5b5033600160026101000a81548173ffffffffffffffffffffffffffffffffffffffff021916908373ffffffffffffffffffffffffffffffffffffffff160217905550610745806100966000396000f3fe608060405234801561001057600080fd5b506004361061007d5760003560e01c80638b7668101161005b5780638b766810146100c85780638da5cb5b146100e657806396a700ac14610104578063eb4458851461010e5761007d565b80630e8b50de14610082578063575185ed146100a05780635acb23f5146100aa575b600080fd5b61008a610118565b6040516100979190610483565b60405180910390f35b6100a861012b565b005b6100b26101ea565b6040516100bf91906104b7565b60405180910390f35b6100d06101f0565b6040516100dd9190610483565b60405180910390f35b6100ee610201565b6040516100fb9190610513565b60405180910390f35b61010c610227565b005b6101166102d3565b005b600160009054906101000a900460ff1681565b600160029054906101000a900473ffffffffffffffffffffffffffffffffffffffff1673ffffffffffffffffffffffffffffffffffffffff163373ffffffffffffffffffffffffffffffffffffffff16146101bb576040517f08c379a00000000000000000000000000000000000000000000000000000000081526004016101b29061058b565b60405180910390fd5b6078426101c891906105da565b60008190555060018060016101000a81548160ff021916908315150217905550565b60005481565b60018054906101000a900460ff1681565b600160029054906101000a900473ffffffffffffffffffffffffffffffffffffffff1681565b600160029054906101000a900473ffffffffffffffffffffffffffffffffffffffff1673ffffffffffffffffffffffffffffffffffffffff163373ffffffffffffffffffffffffffffffffffffffff16146102b7576040517f08c379a00000000000000000000000000000000000000000000000000000000081526004016102ae9061058b565b60405180910390fd5b60006001806101000a81548160ff021916908315150217905550565b600054421015610318576040517f08c379a000000000000000000000000000000000000000000000000000000000815260040161030f9061065a565b60405180910390fd5b60018054906101000a900460ff16610365576040517f08c379a000000000000000000000000000000000000000000000000000000000815260040161035c906106c6565b60405180910390fd5b600160009054906101000a900460ff166103f1577f569772a6781ab1a38160a03b18197581324c77c18915c0e9c125d845063fc6914260018054906101000a900460ff166040516103b79291906106e6565b60405180910390a160018060006101000a81548160ff021916908315150217905550601e426103e691906105da565b600081905550610466565b7f2a9a9fa3bb55e01900a9f8d2144b1fc02658b2203bcf9d1f10978aa136aa87644260018054906101000a900460ff1660405161042f9291906106e6565b60405180910390a16000600160006101000a81548160ff02191690831515021790555060784261045f91906105da565b6000819055505b565b60008115159050919050565b61047d81610468565b82525050565b60006020820190506104986000830184610474565b92915050565b6000819050919050565b6104b18161049e565b82525050565b60006020820190506104cc60008301846104a8565b92915050565b600073ffffffffffffffffffffffffffffffffffffffff82169050919050565b60006104fd826104d2565b9050919050565b61050d816104f2565b82525050565b60006020820190506105286000830184610504565b92915050565b600082825260208201905092915050565b7f43616c6c6572206973206e6f7420746865206f776e6572000000000000000000600082015250565b600061057560178361052e565b91506105808261053f565b602082019050919050565b600060208201905081810360008301526105a481610568565b9050919050565b7f4e487b7100000000000000000000000000000000000000000000000000000000600052601160045260246000fd5b60006105e58261049e565b91506105f08361049e565b9250828201905080821115610608576106076105ab565b5b92915050565b7f4974206973206e6f742074696d65207965740000000000000000000000000000600082015250565b600061064460128361052e565b915061064f8261060e565b602082019050919050565b6000602082019050818103600083015261067381610637565b9050919050565b7f47726f7570206973206e6f742061637469766500000000000000000000000000600082015250565b60006106b060138361052e565b91506106bb8261067a565b602082019050919050565b600060208201905081810360008301526106df816106a3565b9050919050565b60006040820190506106fb60008301856104a8565b6107086020830184610474565b939250505056fea26469706673582212207b2cd2bce3b74ddd003470b01038e5c5c43ce7d1a0f360a033a29addfb3efe1564736f6c63430008180033",
  "linkReferences": {},
  "deployedLinkReferences": {}
}