{
  "_format": "hh-sol-artifact-1",
  "contractName": "timedVoting",
  "sourceName": "contracts/timedVoting.sol",
  "abi": [
    {
      "inputs": [],
      "stateMutability": "nonpayable",
      "type": "constructor"
    },
    {
      "anonymous": false,
      "inputs": [],
      "name": "CloseWebView",
      "type": "event"
    },
    {
      "anonymous": false,
      "inputs": [],
      "name": "DisplayWebView",
      "type": "event"
    },
    {
      "inputs": [],
      "name": "checkAndUpdateExecution",
      "outputs": [],
      "stateMutability": "nonpayable",
      "type": "function"
    },
    {
      "inputs": [],
      "name": "cycleCounter",
      "outputs": [
        {
          "internalType": "uint256",
          "name": "",
          "type": "uint256"
        }
      ],
      "stateMutability": "view",
      "type": "function"
    },
    {
      "inputs": [],
      "name": "initializeGroup",
      "outputs": [],
      "stateMutability": "nonpayable",
      "type": "function"
    },
    {
      "inputs": [],
      "name": "nextExecutionTime",
      "outputs": [
        {
          "internalType": "uint256",
          "name": "",
          "type": "uint256"
        }
      ],
      "stateMutability": "view",
      "type": "function"
    },
    {
      "inputs": [],
      "name": "owner",
      "outputs": [
        {
          "internalType": "address",
          "name": "",
          "type": "address"
        }
      ],
      "stateMutability": "view",
      "type": "function"
    },
    {
      "inputs": [],
      "name": "resetCycle",
      "outputs": [],
      "stateMutability": "nonpayable",
      "type": "function"
    },
    {
      "inputs": [],
      "name": "webViewDisplayed",
      "outputs": [
        {
          "internalType": "bool",
          "name": "",
          "type": "bool"
        }
      ],
      "stateMutability": "view",
      "type": "function"
    }
  ],
  "bytecode": "0x608060405260006001556000600260006101000a81548160ff02191690831515021790555034801561003057600080fd5b5033600260016101000a81548173ffffffffffffffffffffffffffffffffffffffff021916908373ffffffffffffffffffffffffffffffffffffffff1602179055506107d0806100816000396000f3fe608060405234801561001057600080fd5b506004361061007d5760003560e01c80639271c2031161005b5780639271c203146100dc578063b7aa1797146100e6578063eb445885146100f0578063f33fbaf3146100fa5761007d565b80630e8b50de146100825780635acb23f5146100a05780638da5cb5b146100be575b600080fd5b61008a610118565b60405161009791906104a5565b60405180910390f35b6100a861012b565b6040516100b591906104d9565b60405180910390f35b6100c6610131565b6040516100d39190610535565b60405180910390f35b6100e4610157565b005b6100ee610212565b005b6100f8610302565b005b610102610484565b60405161010f91906104d9565b60405180910390f35b600260009054906101000a900460ff1681565b60005481565b600260019054906101000a900473ffffffffffffffffffffffffffffffffffffffff1681565b600260019054906101000a900473ffffffffffffffffffffffffffffffffffffffff1673ffffffffffffffffffffffffffffffffffffffff163373ffffffffffffffffffffffffffffffffffffffff16146101e7576040517f08c379a00000000000000000000000000000000000000000000000000000000081526004016101de906105ad565b60405180910390fd5b600180819055506000600260006101000a81548160ff02191690831515021790555060008081905550565b600260019054906101000a900473ffffffffffffffffffffffffffffffffffffffff1673ffffffffffffffffffffffffffffffffffffffff163373ffffffffffffffffffffffffffffffffffffffff16146102a2576040517f08c379a0000000000000000000000000000000000000000000000000000000008152600401610299906105ad565b60405180910390fd5b60018054146102e6576040517f08c379a00000000000000000000000000000000000000000000000000000000081526004016102dd90610619565b60405180910390fd5b6078426102f39190610668565b60008190555060018081905550565b600054421015610347576040517f08c379a000000000000000000000000000000000000000000000000000000000815260040161033e906106e8565b60405180910390fd5b600180541015801561035c5750600460015411155b61039b576040517f08c379a00000000000000000000000000000000000000000000000000000000081526004016103929061077a565b60405180910390fd5b600260009054906101000a900460ff1661040e577f221638c68c73d392697a4de5e58580ef563d25992f83fc6ca56947d52290a98160405160405180910390a16001600260006101000a81548160ff021916908315150217905550601e426104039190610668565b600081905550610482565b7f556c97f677828ff2c89363a6a66142f0c9d4705b2a3bc85d2170562f37e7819960405160405180910390a16000600260006101000a81548160ff0219169083151502179055506078426104629190610668565b600081905550600180600082825461047a9190610668565b925050819055505b565b60015481565b60008115159050919050565b61049f8161048a565b82525050565b60006020820190506104ba6000830184610496565b92915050565b6000819050919050565b6104d3816104c0565b82525050565b60006020820190506104ee60008301846104ca565b92915050565b600073ffffffffffffffffffffffffffffffffffffffff82169050919050565b600061051f826104f4565b9050919050565b61052f81610514565b82525050565b600060208201905061054a6000830184610526565b92915050565b600082825260208201905092915050565b7f43616c6c6572206973206e6f7420746865206f776e6572000000000000000000600082015250565b6000610597601783610550565b91506105a282610561565b602082019050919050565b600060208201905081810360008301526105c68161058a565b9050919050565b7f4379636c6520616c726561647920696e697469616c697a656400000000000000600082015250565b6000610603601983610550565b915061060e826105cd565b602082019050919050565b60006020820190508181036000830152610632816105f6565b9050919050565b7f4e487b7100000000000000000000000000000000000000000000000000000000600052601160045260246000fd5b6000610673826104c0565b915061067e836104c0565b925082820190508082111561069657610695610639565b5b92915050565b7f4974206973206e6f742074696d65207965740000000000000000000000000000600082015250565b60006106d2601283610550565b91506106dd8261069c565b602082019050919050565b60006020820190508181036000830152610701816106c5565b9050919050565b7f4379636c65206c696d69742072656163686564206f72206e6f7420737461727460008201527f6564000000000000000000000000000000000000000000000000000000000000602082015250565b6000610764602283610550565b915061076f82610708565b604082019050919050565b6000602082019050818103600083015261079381610757565b905091905056fea26469706673582212206313037e522af160fc651a9817974a64390d9c3685bc7f79901078157d84761564736f6c63430008180033",
  "linkReferences": {},
  "deployedLinkReferences": {}
}